{
  "contractName": "DecentralBank",
  "abi": [
    {
      "constant": true,
      "inputs": [],
      "name": "name",
      "outputs": [
        {
          "name": "",
          "type": "string"
        }
      ],
      "payable": false,
      "stateMutability": "view",
      "type": "function",
      "signature": "0x06fdde03"
    },
    {
      "constant": true,
      "inputs": [],
      "name": "rwd",
      "outputs": [
        {
          "name": "",
          "type": "address"
        }
      ],
      "payable": false,
      "stateMutability": "view",
      "type": "function",
      "signature": "0x1a8972d3"
    },
    {
      "constant": true,
      "inputs": [
        {
          "name": "",
          "type": "address"
        }
      ],
      "name": "stakingBalance",
      "outputs": [
        {
          "name": "",
          "type": "uint256"
        }
      ],
      "payable": false,
      "stateMutability": "view",
      "type": "function",
      "signature": "0x45bc78ab"
    },
    {
      "constant": true,
      "inputs": [],
      "name": "tether",
      "outputs": [
        {
          "name": "",
          "type": "address"
        }
      ],
      "payable": false,
      "stateMutability": "view",
      "type": "function",
      "signature": "0x5efc071a"
    },
    {
      "constant": true,
      "inputs": [
        {
          "name": "",
          "type": "address"
        }
      ],
      "name": "isStaked",
      "outputs": [
        {
          "name": "",
          "type": "bool"
        }
      ],
      "payable": false,
      "stateMutability": "view",
      "type": "function",
      "signature": "0x6177fd18"
    },
    {
      "constant": true,
      "inputs": [],
      "name": "owner",
      "outputs": [
        {
          "name": "",
          "type": "address"
        }
      ],
      "payable": false,
      "stateMutability": "view",
      "type": "function",
      "signature": "0x8da5cb5b"
    },
    {
      "constant": true,
      "inputs": [
        {
          "name": "",
          "type": "address"
        }
      ],
      "name": "hasStaked",
      "outputs": [
        {
          "name": "",
          "type": "bool"
        }
      ],
      "payable": false,
      "stateMutability": "view",
      "type": "function",
      "signature": "0xc93c8f34"
    },
    {
      "constant": true,
      "inputs": [
        {
          "name": "",
          "type": "uint256"
        }
      ],
      "name": "stakers",
      "outputs": [
        {
          "name": "",
          "type": "address"
        }
      ],
      "payable": false,
      "stateMutability": "view",
      "type": "function",
      "signature": "0xfd5e6dd1"
    },
    {
      "inputs": [
        {
          "name": "_rwd",
          "type": "address"
        },
        {
          "name": "_tether",
          "type": "address"
        }
      ],
      "payable": false,
      "stateMutability": "nonpayable",
      "type": "constructor",
      "signature": "constructor"
    },
    {
      "anonymous": false,
      "inputs": [
        {
          "indexed": false,
          "name": "owner",
          "type": "address"
        },
        {
          "indexed": false,
          "name": "wallet",
          "type": "address"
        },
        {
          "indexed": false,
          "name": "permissionedValue",
          "type": "uint256"
        }
      ],
      "name": "Deposite",
      "type": "event",
      "signature": "0x8167f844bf146ff6eb4048cb356b1ca79d940f71bca4304aeb52c0f2c4ec38df"
    },
    {
      "constant": false,
      "inputs": [
        {
          "name": "_amount",
          "type": "uint256"
        }
      ],
      "name": "depositTokens",
      "outputs": [],
      "payable": false,
      "stateMutability": "nonpayable",
      "type": "function",
      "signature": "0xdd49756e"
    },
    {
      "constant": false,
      "inputs": [],
      "name": "issueTokens",
      "outputs": [],
      "payable": false,
      "stateMutability": "nonpayable",
      "type": "function",
      "signature": "0x60ab5852"
    },
    {
      "constant": false,
      "inputs": [],
      "name": "unstakeTokens",
      "outputs": [],
      "payable": false,
      "stateMutability": "nonpayable",
      "type": "function",
      "signature": "0xa5ce413b"
    }
  ],
  "bytecode": "0x60806040526040805190810160405280600e81526020017f446563656e7472616c2042616e6b0000000000000000000000000000000000008152506000908051906020019061004f929190610121565b5034801561005c57600080fd5b50604051604080620011648339810180604052604081101561007d57600080fd5b81019080805190602001909291908051906020019092919050505080600360006101000a81548173ffffffffffffffffffffffffffffffffffffffff021916908373ffffffffffffffffffffffffffffffffffffffff16021790555081600260006101000a81548173ffffffffffffffffffffffffffffffffffffffff021916908373ffffffffffffffffffffffffffffffffffffffff16021790555050506101c6565b828054600181600116156101000203166002900490600052602060002090601f016020900481019282601f1061016257805160ff1916838001178555610190565b82800160010185558215610190579182015b8281111561018f578251825591602001919060010190610174565b5b50905061019d91906101a1565b5090565b6101c391905b808211156101bf5760008160009055506001016101a7565b5090565b90565b610f8e80620001d66000396000f3fe6080604052600436106100af576000357c0100000000000000000000000000000000000000000000000000000000900463ffffffff16806306fdde03146100b45780631a8972d31461014457806345bc78ab1461019b5780635efc071a1461020057806360ab5852146102575780636177fd181461026e5780638da5cb5b146102d7578063a5ce413b1461032e578063c93c8f3414610345578063dd49756e146103ae578063fd5e6dd1146103e9575b600080fd5b3480156100c057600080fd5b506100c9610464565b6040518080602001828103825283818151815260200191508051906020019080838360005b838110156101095780820151818401526020810190506100ee565b50505050905090810190601f1680156101365780820380516001836020036101000a031916815260200191505b509250505060405180910390f35b34801561015057600080fd5b50610159610502565b604051808273ffffffffffffffffffffffffffffffffffffffff1673ffffffffffffffffffffffffffffffffffffffff16815260200191505060405180910390f35b3480156101a757600080fd5b506101ea600480360360208110156101be57600080fd5b81019080803573ffffffffffffffffffffffffffffffffffffffff169060200190929190505050610528565b6040518082815260200191505060405180910390f35b34801561020c57600080fd5b50610215610540565b604051808273ffffffffffffffffffffffffffffffffffffffff1673ffffffffffffffffffffffffffffffffffffffff16815260200191505060405180910390f35b34801561026357600080fd5b5061026c610566565b005b34801561027a57600080fd5b506102bd6004803603602081101561029157600080fd5b81019080803573ffffffffffffffffffffffffffffffffffffffff1690602001909291905050506107dd565b604051808215151515815260200191505060405180910390f35b3480156102e357600080fd5b506102ec6107fd565b604051808273ffffffffffffffffffffffffffffffffffffffff1673ffffffffffffffffffffffffffffffffffffffff16815260200191505060405180910390f35b34801561033a57600080fd5b50610343610823565b005b34801561035157600080fd5b506103946004803603602081101561036857600080fd5b81019080803573ffffffffffffffffffffffffffffffffffffffff169060200190929190505050610afe565b604051808215151515815260200191505060405180910390f35b3480156103ba57600080fd5b506103e7600480360360208110156103d157600080fd5b8101908080359060200190929190505050610b1e565b005b3480156103f557600080fd5b506104226004803603602081101561040c57600080fd5b8101908080359060200190929190505050610f24565b604051808273ffffffffffffffffffffffffffffffffffffffff1673ffffffffffffffffffffffffffffffffffffffff16815260200191505060405180910390f35b60008054600181600116156101000203166002900480601f0160208091040260200160405190810160405280929190818152602001828054600181600116156101000203166002900480156104fa5780601f106104cf576101008083540402835291602001916104fa565b820191906000526020600020905b8154815290600101906020018083116104dd57829003601f168201915b505050505081565b600260009054906101000a900473ffffffffffffffffffffffffffffffffffffffff1681565b60056020528060005260406000206000915090505481565b600360009054906101000a900473ffffffffffffffffffffffffffffffffffffffff1681565b600160009054906101000a900473ffffffffffffffffffffffffffffffffffffffff1673ffffffffffffffffffffffffffffffffffffffff163373ffffffffffffffffffffffffffffffffffffffff1614151561062b576040517f08c379a00000000000000000000000000000000000000000000000000000000081526004018080602001828103825260188152602001807f63616c6c6572206d75737420626520746865206f776e6572000000000000000081525060200191505060405180910390fd5b60008090505b6004805490508110156107da57600060048281548110151561064f57fe5b9060005260206000200160009054906101000a900473ffffffffffffffffffffffffffffffffffffffff1690506000600560008373ffffffffffffffffffffffffffffffffffffffff1673ffffffffffffffffffffffffffffffffffffffff16815260200190815260200160002054905060008111156107cb57600260009054906101000a900473ffffffffffffffffffffffffffffffffffffffff1673ffffffffffffffffffffffffffffffffffffffff1663a9059cbb83836040518363ffffffff167c0100000000000000000000000000000000000000000000000000000000028152600401808373ffffffffffffffffffffffffffffffffffffffff1673ffffffffffffffffffffffffffffffffffffffff16815260200182815260200192505050602060405180830381600087803b15801561078e57600080fd5b505af11580156107a2573d6000803e3d6000fd5b505050506040513d60208110156107b857600080fd5b8101908080519060200190929190505050505b50508080600101915050610631565b50565b60066020528060005260406000206000915054906101000a900460ff1681565b600160009054906101000a900473ffffffffffffffffffffffffffffffffffffffff1681565b6000600560003373ffffffffffffffffffffffffffffffffffffffff1673ffffffffffffffffffffffffffffffffffffffff168152602001908152602001600020549050600081111515610905576040517f08c379a00000000000000000000000000000000000000000000000000000000081526004018080602001828103825260278152602001807f7374616b696e672062616c616e6365206d75737420626520706f73697469766581526020017f206e756d6265720000000000000000000000000000000000000000000000000081525060400191505060405180910390fd5b600360009054906101000a900473ffffffffffffffffffffffffffffffffffffffff1673ffffffffffffffffffffffffffffffffffffffff1663a9059cbb33836040518363ffffffff167c0100000000000000000000000000000000000000000000000000000000028152600401808373ffffffffffffffffffffffffffffffffffffffff1673ffffffffffffffffffffffffffffffffffffffff16815260200182815260200192505050602060405180830381600087803b1580156109ca57600080fd5b505af11580156109de573d6000803e3d6000fd5b505050506040513d60208110156109f457600080fd5b8101908080519060200190929190505050506000600560003373ffffffffffffffffffffffffffffffffffffffff1673ffffffffffffffffffffffffffffffffffffffff168152602001908152602001600020819055506000600660003373ffffffffffffffffffffffffffffffffffffffff1673ffffffffffffffffffffffffffffffffffffffff16815260200190815260200160002060006101000a81548160ff0219169083151502179055506000600760003373ffffffffffffffffffffffffffffffffffffffff1673ffffffffffffffffffffffffffffffffffffffff16815260200190815260200160002060006101000a81548160ff02191690831515021790555050565b60076020528060005260406000206000915054906101000a900460ff1681565b600081111515610b96576040517f08c379a000000000000000000000000000000000000000000000000000000000815260040180806020018281038252601e8152602001807f616d6f756e74206d75737420626520706f736974697665206e756d626572000081525060200191505060405180910390fd5b7f8167f844bf146ff6eb4048cb356b1ca79d940f71bca4304aeb52c0f2c4ec38df333083604051808473ffffffffffffffffffffffffffffffffffffffff1673ffffffffffffffffffffffffffffffffffffffff1681526020018373ffffffffffffffffffffffffffffffffffffffff1673ffffffffffffffffffffffffffffffffffffffff168152602001828152602001935050505060405180910390a1600360009054906101000a900473ffffffffffffffffffffffffffffffffffffffff1673ffffffffffffffffffffffffffffffffffffffff166323b872dd3330846040518463ffffffff167c0100000000000000000000000000000000000000000000000000000000028152600401808473ffffffffffffffffffffffffffffffffffffffff1673ffffffffffffffffffffffffffffffffffffffff1681526020018373ffffffffffffffffffffffffffffffffffffffff1673ffffffffffffffffffffffffffffffffffffffff1681526020018281526020019350505050602060405180830381600087803b158015610d2e57600080fd5b505af1158015610d42573d6000803e3d6000fd5b505050506040513d6020811015610d5857600080fd5b81019080805190602001909291905050505080600560003373ffffffffffffffffffffffffffffffffffffffff1673ffffffffffffffffffffffffffffffffffffffff16815260200190815260200160002060008282540192505081905550600760003373ffffffffffffffffffffffffffffffffffffffff1673ffffffffffffffffffffffffffffffffffffffff16815260200190815260200160002060009054906101000a900460ff161515610e715760043390806001815401808255809150509060018203906000526020600020016000909192909190916101000a81548173ffffffffffffffffffffffffffffffffffffffff021916908373ffffffffffffffffffffffffffffffffffffffff160217905550505b6001600660003373ffffffffffffffffffffffffffffffffffffffff1673ffffffffffffffffffffffffffffffffffffffff16815260200190815260200160002060006101000a81548160ff0219169083151502179055506001600760003373ffffffffffffffffffffffffffffffffffffffff1673ffffffffffffffffffffffffffffffffffffffff16815260200190815260200160002060006101000a81548160ff02191690831515021790555050565b600481815481101515610f3357fe5b906000526020600020016000915054906101000a900473ffffffffffffffffffffffffffffffffffffffff168156fea165627a7a72305820605df0ffdf27fdee84efa154889bc0c802a914b19074ad481f2b5ce9619d46180029",
  "source": "// SPDX-License-Identifier: GPL-3.0\n\npragma solidity ^0.5.0;\nimport './RWD.sol';\nimport './Tether.sol';\n\n\ncontract DecentralBank {\n  string public  name=\"Decentral Bank\";\n  address public owner;\n    RWD public rwd;\n  Tether public tether;\nconstructor(RWD _rwd,Tether _tether)public{\ntether=_tether;\nrwd=_rwd;\n}\naddress[] public stakers;\nmapping (address=>uint)public stakingBalance;\nmapping (address=>bool)public isStaked;\nmapping (address=>bool)public hasStaked;\n\nevent Deposite(\n    address owner,\n    address wallet,\n    uint permissionedValue\n);\n\nfunction depositTokens(uint _amount)public{\n  require(_amount>0,\"amount must be positive number\");\n\nemit Deposite(msg.sender, address(this),_amount);\n\ntether.transferFrom(msg.sender, address(this), _amount);\nstakingBalance[msg.sender]+=_amount;\n\nif (!hasStaked[msg.sender]){\n  stakers.push(msg.sender);\n}\nisStaked[msg.sender]=true;\nhasStaked[msg.sender]=true;\n\n}\nfunction issueTokens()public{\nrequire(msg.sender==owner,'caller must be the owner');\nfor(uint i=0;i<stakers.length;i++){\n  address recipient =stakers[i];\n  uint balance =stakingBalance[recipient];\n  if (balance>0){\n     rwd.transfer(recipient, balance);\n  }\n}\n}\nfunction unstakeTokens()public{\n  uint balance =stakingBalance[msg.sender];\nrequire(balance>0,'staking balance must be positive number');\ntether.transfer(msg.sender, balance);\nstakingBalance[msg.sender]=0;\nisStaked[msg.sender]=false;\nhasStaked[msg.sender]=false;\n}\n}",
  "sourcePath": "/home/danil/Desktop/defi-staking-app-starter/contracts/DecentralBank.sol",
  "compiler": {
    "name": "solc",
    "version": "0.5.0+commit.1d4f565a.Emscripten.clang"
  },
  "schemaVersion": "3.0.0-beta.2",
  "updatedAt": "2023-11-10T17:52:53.903Z",
  "devdoc": {
    "methods": {}
  },
  "userdoc": {
    "methods": {}
  }
}