{
  "contractName": "RWD",
  "abi": [
    {
      "constant": true,
      "inputs": [],
      "name": "name",
      "outputs": [
        {
          "name": "",
          "type": "string"
        }
      ],
      "payable": false,
      "stateMutability": "view",
      "type": "function"
    },
    {
      "constant": true,
      "inputs": [],
      "name": "symbol",
      "outputs": [
        {
          "name": "",
          "type": "string"
        }
      ],
      "payable": false,
      "stateMutability": "view",
      "type": "function"
    },
    {
      "constant": true,
      "inputs": [],
      "name": "totalSuply",
      "outputs": [
        {
          "name": "",
          "type": "uint256"
        }
      ],
      "payable": false,
      "stateMutability": "view",
      "type": "function"
    },
    {
      "constant": true,
      "inputs": [
        {
          "name": "",
          "type": "address"
        },
        {
          "name": "",
          "type": "address"
        }
      ],
      "name": "permissionedValueToSend",
      "outputs": [
        {
          "name": "",
          "type": "uint256"
        }
      ],
      "payable": false,
      "stateMutability": "view",
      "type": "function"
    },
    {
      "constant": true,
      "inputs": [
        {
          "name": "",
          "type": "address"
        }
      ],
      "name": "balance",
      "outputs": [
        {
          "name": "",
          "type": "uint256"
        }
      ],
      "payable": false,
      "stateMutability": "view",
      "type": "function"
    },
    {
      "inputs": [],
      "payable": false,
      "stateMutability": "nonpayable",
      "type": "constructor"
    },
    {
      "anonymous": false,
      "inputs": [
        {
          "indexed": true,
          "name": "_from",
          "type": "address"
        },
        {
          "indexed": true,
          "name": "_to",
          "type": "address"
        },
        {
          "indexed": false,
          "name": "_value",
          "type": "uint256"
        },
        {
          "indexed": false,
          "name": "result",
          "type": "bool"
        }
      ],
      "name": "Transfer",
      "type": "event"
    },
    {
      "anonymous": false,
      "inputs": [
        {
          "indexed": false,
          "name": "owner",
          "type": "address"
        },
        {
          "indexed": false,
          "name": "permissionedValue",
          "type": "uint256"
        }
      ],
      "name": "Approve",
      "type": "event"
    },
    {
      "constant": false,
      "inputs": [
        {
          "name": "sender",
          "type": "address"
        },
        {
          "name": "value",
          "type": "uint256"
        }
      ],
      "name": "approve",
      "outputs": [
        {
          "name": "success",
          "type": "bool"
        }
      ],
      "payable": false,
      "stateMutability": "nonpayable",
      "type": "function"
    },
    {
      "constant": false,
      "inputs": [
        {
          "name": "_to",
          "type": "address"
        },
        {
          "name": "value",
          "type": "uint256"
        }
      ],
      "name": "transfer",
      "outputs": [
        {
          "name": "success",
          "type": "bool"
        }
      ],
      "payable": false,
      "stateMutability": "nonpayable",
      "type": "function"
    },
    {
      "constant": false,
      "inputs": [
        {
          "name": "_from",
          "type": "address"
        },
        {
          "name": "_to",
          "type": "address"
        },
        {
          "name": "value",
          "type": "uint256"
        }
      ],
      "name": "transferFrom",
      "outputs": [
        {
          "name": "success",
          "type": "bool"
        }
      ],
      "payable": false,
      "stateMutability": "nonpayable",
      "type": "function"
    }
  ],
  "bytecode": "0x60806040526040805190810160405280600c81526020017f52657761726420546f6b656e00000000000000000000000000000000000000008152506000908051906020019061004f929190610102565b506040805190810160405280600381526020017f52574400000000000000000000000000000000000000000000000000000000008152506001908051906020019061009b929190610102565b5069d3c21bcecceda10000006002553480156100b657600080fd5b50600254600360003373ffffffffffffffffffffffffffffffffffffffff1673ffffffffffffffffffffffffffffffffffffffff168152602001908152602001600020819055506101a7565b828054600181600116156101000203166002900490600052602060002090601f016020900481019282601f1061014357805160ff1916838001178555610171565b82800160010185558215610171579182015b82811115610170578251825591602001919060010190610155565b5b50905061017e9190610182565b5090565b6101a491905b808211156101a0576000816000905550600101610188565b5090565b90565b610c8b806101b66000396000f3fe60806040526004361061008e576000357c0100000000000000000000000000000000000000000000000000000000900463ffffffff16806306fdde0314610093578063095ea7b31461012357806323b872dd1461019657806395d89b4114610229578063a2a96799146102b9578063a9059cbb146102e4578063c7a5426214610357578063e3d670d7146103dc575b600080fd5b34801561009f57600080fd5b506100a8610441565b6040518080602001828103825283818151815260200191508051906020019080838360005b838110156100e85780820151818401526020810190506100cd565b50505050905090810190601f1680156101155780820380516001836020036101000a031916815260200191505b509250505060405180910390f35b34801561012f57600080fd5b5061017c6004803603604081101561014657600080fd5b81019080803573ffffffffffffffffffffffffffffffffffffffff169060200190929190803590602001909291905050506104df565b604051808215151515815260200191505060405180910390f35b3480156101a257600080fd5b5061020f600480360360608110156101b957600080fd5b81019080803573ffffffffffffffffffffffffffffffffffffffff169060200190929190803573ffffffffffffffffffffffffffffffffffffffff169060200190929190803590602001909291905050506105d7565b604051808215151515815260200191505060405180910390f35b34801561023557600080fd5b5061023e61097d565b6040518080602001828103825283818151815260200191508051906020019080838360005b8381101561027e578082015181840152602081019050610263565b50505050905090810190601f1680156102ab5780820380516001836020036101000a031916815260200191505b509250505060405180910390f35b3480156102c557600080fd5b506102ce610a1b565b6040518082815260200191505060405180910390f35b3480156102f057600080fd5b5061033d6004803603604081101561030757600080fd5b81019080803573ffffffffffffffffffffffffffffffffffffffff16906020019092919080359060200190929190505050610a21565b604051808215151515815260200191505060405180910390f35b34801561036357600080fd5b506103c66004803603604081101561037a57600080fd5b81019080803573ffffffffffffffffffffffffffffffffffffffff169060200190929190803573ffffffffffffffffffffffffffffffffffffffff169060200190929190505050610c22565b6040518082815260200191505060405180910390f35b3480156103e857600080fd5b5061042b600480360360208110156103ff57600080fd5b81019080803573ffffffffffffffffffffffffffffffffffffffff169060200190929190505050610c47565b6040518082815260200191505060405180910390f35b60008054600181600116156101000203166002900480601f0160208091040260200160405190810160405280929190818152602001828054600181600116156101000203166002900480156104d75780601f106104ac576101008083540402835291602001916104d7565b820191906000526020600020905b8154815290600101906020018083116104ba57829003601f168201915b505050505081565b600081600460003373ffffffffffffffffffffffffffffffffffffffff1673ffffffffffffffffffffffffffffffffffffffff16815260200190815260200160002060008573ffffffffffffffffffffffffffffffffffffffff1673ffffffffffffffffffffffffffffffffffffffff168152602001908152602001600020819055507f90ec57f18fa7b15c6b8d5e4d1deb90796c74b2ff23d4d0cecad0cb42a96b31288383604051808373ffffffffffffffffffffffffffffffffffffffff1673ffffffffffffffffffffffffffffffffffffffff1681526020018281526020019250505060405180910390a16001905092915050565b600081600460003373ffffffffffffffffffffffffffffffffffffffff1673ffffffffffffffffffffffffffffffffffffffff16815260200190815260200160002060008673ffffffffffffffffffffffffffffffffffffffff1673ffffffffffffffffffffffffffffffffffffffff16815260200190815260200160002054101515156106f3576040517f08c379a00000000000000000000000000000000000000000000000000000000081526004018080602001828103825260358152602001807f4572726f722c6d6178696d756d20616d6f756e74206f6620206d6f6e6579206881526020017f6173206265656e2020616c72656164792073656e74000000000000000000000081525060400191505060405180910390fd5b81600360003373ffffffffffffffffffffffffffffffffffffffff1673ffffffffffffffffffffffffffffffffffffffff16815260200190815260200160002054101580156107425750600082115b15156107dc576040517f08c379a000000000000000000000000000000000000000000000000000000000815260040180806020018281038252602b8152602001807f4572726f7220647572696e67207472616e73666572696e672e56616c7565206981526020017f7320696e636f727265637400000000000000000000000000000000000000000081525060400191505060405180910390fd5b81600360008673ffffffffffffffffffffffffffffffffffffffff1673ffffffffffffffffffffffffffffffffffffffff1681526020019081526020016000206000828254039250508190555081600460003373ffffffffffffffffffffffffffffffffffffffff1673ffffffffffffffffffffffffffffffffffffffff16815260200190815260200160002060008673ffffffffffffffffffffffffffffffffffffffff1673ffffffffffffffffffffffffffffffffffffffff1681526020019081526020016000206000828254039250508190555081600360008573ffffffffffffffffffffffffffffffffffffffff1673ffffffffffffffffffffffffffffffffffffffff168152602001908152602001600020600082825401925050819055508273ffffffffffffffffffffffffffffffffffffffff168473ffffffffffffffffffffffffffffffffffffffff167ff431703d7399230d223d254d7e8479fcd3149952c18616d3c9eb716c6ef5d67284600160405180838152602001821515151581526020019250505060405180910390a3600190509392505050565b60018054600181600116156101000203166002900480601f016020809104026020016040519081016040528092919081815260200182805460018160011615610100020316600290048015610a135780601f106109e857610100808354040283529160200191610a13565b820191906000526020600020905b8154815290600101906020018083116109f657829003601f168201915b505050505081565b60025481565b600081600360003373ffffffffffffffffffffffffffffffffffffffff1673ffffffffffffffffffffffffffffffffffffffff1681526020019081526020016000205410158015610a725750600082115b1515610b0c576040517f08c379a000000000000000000000000000000000000000000000000000000000815260040180806020018281038252602b8152602001807f4572726f7220647572696e67207472616e73666572696e672e56616c7565206981526020017f7320696e636f727265637400000000000000000000000000000000000000000081525060400191505060405180910390fd5b81600360003373ffffffffffffffffffffffffffffffffffffffff1673ffffffffffffffffffffffffffffffffffffffff1681526020019081526020016000206000828254039250508190555081600360008573ffffffffffffffffffffffffffffffffffffffff1673ffffffffffffffffffffffffffffffffffffffff168152602001908152602001600020600082825401925050819055508273ffffffffffffffffffffffffffffffffffffffff163373ffffffffffffffffffffffffffffffffffffffff167ff431703d7399230d223d254d7e8479fcd3149952c18616d3c9eb716c6ef5d67284600160405180838152602001821515151581526020019250505060405180910390a36001905092915050565b6004602052816000526040600020602052806000526040600020600091509150505481565b6003602052806000526040600020600091509050548156fea165627a7a72305820ae33fbf42ead29fd237ac931b1b17c1b0a8052c6769c793591a3986a20e0c6090029",
  "source": "// SPDX-License-Identifier: GPL-3.0\n\npragma solidity ^0.5.0;\n//token \ncontract RWD{\n    string public name=\"Reward Token\";\n    string public symbol=\"RWD\";\n    uint public totalSuply=1000000000000000000000000;//100 ETH\n\n\nevent Transfer(\n    address indexed _from,\n    address indexed _to,\n    uint _value,\n    bool  result\n);\nevent Approve(\n    address owner,\n    uint permissionedValue\n);\nfunction approve(address sender,uint value)public returns (bool success){\n\npermissionedValueToSend[msg.sender][sender]=value;\nemit Approve(sender, value);\n    return true;\n}\n\nmapping(address=>uint) public balance;\n\nconstructor()public{\n    balance[msg.sender]=totalSuply;\n}\nmapping(address=>mapping(address=>uint))public permissionedValueToSend; \n\nfunction transfer(address _to,uint value)public returns(bool success){\nrequire(balance[msg.sender]>=value && value>0,'Error during transfering.Value is incorrect');\nbalance[msg.sender]-=value;\nbalance[_to]+=value;\nemit Transfer(msg.sender, _to, value,true);\nreturn true;\n}\n\nfunction transferFrom(address _from,address _to,uint value)public returns(bool success){\nrequire(permissionedValueToSend[msg.sender][_from]>=value,\"Error,maximum amount of  money has been  already sent\");\nrequire(balance[msg.sender]>=value && value>0,'Error during transfering.Value is incorrect');\nbalance[_from]-=value;\npermissionedValueToSend[msg.sender][_from]-=value;\nbalance[_to]+=value;\nemit Transfer(_from, _to, value,true);\nreturn true;\n}\n}\n",
  "sourcePath": "/home/danil/Desktop/defi-staking-app-starter/contracts/RWD.sol",
  "compiler": {
    "name": "solc",
    "version": "0.5.0+commit.1d4f565a.Emscripten.clang"
  },
  "schemaVersion": "3.0.0-beta.2",
  "updatedAt": "2023-11-10T16:10:57.372Z",
  "devdoc": {
    "methods": {}
  },
  "userdoc": {
    "methods": {}
  }
}